:0400000074EF3FF06A
:107EE8000001B2EF3FF0000E036E000E026E035069
:107EF800800A7C0FFB0ED8B4025CD8A001D001D058
:107F080002D02BD02AD0000E056E000E046E05504C
:107F1800800A800F050ED8B4045CD8A001D001D027
:107F280002D00ED00DD0044A052A0550800A800FD1
:107F3800050ED8B4045CD8A001D001D0F4D700D085
:107F4800024A032A0350800A7C0FFB0ED8B4025C55
:107F5800D8A001D001D0D7D700D012009380000E4E
:107F6800956E00D081A001D001D021D0990E836EEA
:107F7800066EFA0E016E065077EC3FF0CC0E836E5B
:107F8800066EFA0E016E065077EC3FF0660E836EB1
:107F9800066EFA0E016E065077EC3FF0330E836ED4
:107FA800066EFA0E016E065077EC3FF0DBD7330E03
:107FB800836E066EFA0E016E065077EC3FF0660E81
:107FC800836E066EFA0E016E065077EC3FF0CC0E0B
:107FD800836E066EFA0E016E065077EC3FF0990E2E
:107FE800836E066EFA0E016E065077EC3FF0BAD734
:087FF800B9D7B8D700EF00F083
:00000001FF
