:040000000CEF00F011
:10000800FACF01F0FBCF02F0E9CF03F00EED00F0DC
:100018005AEF00F00600EACF04F0E1CF05F0E2CF96
:1000280006F0D9CF07F0DACF08F0F3CF09F0F4CF14
:100038000AF0F6CF0BF0F7CF0CF0F8CF0DF0F5CFB4
:100048000EF0F2A201D001D004D08068801EF29296
:1000580000D00EC0F5FF0DC0F8FF0CC0F7FF0BC0B5
:10006800F6FF0AC0F4FF09C0F3FF08C0DAFF07C0B3
:10007800D9FF06C0E2FF05C0E1FF04C0EAFF03C0E4
:10008800E9FF02C0FBFF01C0FAFF1100000E926EEB
:100098009468000E956E9380F28EF292F28800D0EA
:1000A80082CF83FFFDD7FCD70CEF00F000014AEFA9
:0200B80000F056
:00000001FF
