:040000000CEF00F011
:10000800FACF01F0FBCF02F0E9CF03F00EED00F0DC
:1000180065EF00F00600EACF04F0E1CF05F0E2CF8B
:1000280006F0D9CF07F0DACF08F0F3CF09F0F4CF14
:100038000AF0F6CF0BF0F7CF0CF0F8CF0DF0F5CFB4
:100048000EF0F2A001D001D00ED081BE01D002D0B6
:10005800828201D0829281BA01D002D0828401D0FA
:100068008294F29000D00EC0F5FF0DC0F8FF0CC0CE
:10007800F7FF0BC0F6FF0AC0F4FF09C0F3FF08C082
:10008800DAFF07C0D9FF06C0E2FF05C0E1FF04C0E0
:10009800EAFF03C0E9FF02C0FBFF01C0FAFF11003D
:1000A8009268000E956E9388938A94929494F28E37
:1000B800F290F28600D080CF83FFFDD7FCD70CEFFB
:0800C80000F0000154EF00F00C
:00000001FF
