:040000004DEF3FF091
:107E420005C082FF81808192818460EC3FF0819441
:107E5200120005C082FF81908192818460EC3FF024
:107E62008194120041554D52554448204C414C20BA
:107E72004B554D41522054204A0094688190818292
:107E8200818460EC3FF0819482BE01D001D0F8D7AA
:107E920000D0000E946E1200660EF66E7E0EF76E25
:107EA200000EF86E00EE20F010EE16F00900F5CF8D
:107EB200EEFFE550E150FAE100018CEF3FF0000ED9
:107EC200016E000E026E000E036E000E046E640E52
:107ED200015C000E0258000E0358000E0458D8A090
:107EE20001D001D002D016D015D0010E0126000E0D
:107EF2000222000E0322000E0422640E015C000E18
:107F02000258000E0358000E0458D8A001D001D028
:107F1200ECD700D0120020EE20F010EE07F0160E83
:107F2200DECFE6FFE82EFCD7066E000E1D6E065071
:107F3200000E936E000E956E066E380E056E06509C
:107F42002AEC3FF03EEC3FF0066E0E0E056E065038
:107F52002AEC3FF03EEC3FF0066E010E056E065035
:107F62002AEC3FF03EEC3FF0066E060E056E065020
:107F72002AEC3FF03EEC3FF0066E860E056E065090
:107F82002AEC3FF03EEC3FF0066E1C0E056E0650EA
:107F92002AEC3FF03EEC3FF0000E1F6E010E1E6E0B
:107FA2001F50800A800F140ED8B41E5CD8A001D0D6
:107FB20001D002D022D021D0070E1E24D96EDA6A57
:107FC200000EDA22DF50056E21EC3FF03EEC3FF06E
:107FD200066E1C0E056E06502AEC3FF03EEC3FF09A
:107FE2001E4A1F2A1F50800A800F140ED8B41E5C2E
:0E7FF200D8A001D001D0E0D700D000EF00F001
:00000001FF
