:0400000066EF3FF078
:107E740005C083FF81808192818479EC3FF08194F5
:107E8400120005C083FF81908192818479EC3FF0D8
:107E94008194120041554D52554448204C414C2088
:107EA4004B554D41522054204A009568819081825F
:107EB400818479EC3FF0819483BE01D001D0F8D75E
:107EC40000D0000E956E1200980EF66E7E0EF76EC0
:107ED400000EF86E00EE1EF010EE16F00900F5CF5D
:107EE400EEFFE550E150FAE10001A5EF3FF0000E8E
:107EF400016E000E026E000E036E000E046E640E20
:107F0400015C000E0258000E0358000E0458D8A05D
:107F140001D001D002D016D015D0010E0126000EDA
:107F24000222000E0322000E0422640E015C000EE5
:107F34000258000E0358000E0458D8A001D001D0F6
:107F4400ECD700D0120020EE1EF010EE07F0160E53
:107F5400DECFE6FFE82EFCD7066E000E1D6E06503F
:107F6400000E936E000E956E066E380E056E06506A
:107F740043EC3FF057EC3FF0066E0E0E056E0650D4
:107F840043EC3FF057EC3FF0066E010E056E0650D1
:107F940043EC3FF057EC3FF0066E8F0E056E065033
:107FA40043EC3FF057EC3FF018D01D50010D070E85
:107FB400F324D96EDA6A000EDA22DF50056E3AEC49
:107FC4003FF057EC3FF01D281D6E066E070E056E40
:107FD400065043EC3FF057EC3FF01D50010D070EE7
:107FE400F324D96EDA6A000EDA22DF50D8A401D065
:0C7FF40001D0DBD700D0FFD700EF00F079
:00000001FF
