:04000000BCEF3FF022
:107F78000001BFEF3FF09390939293948190819288
:107F880081948180D4EC3FF081908182D4EC3FF0E1
:107F980081928184D4EC3FF0F4D7F3D700EF00F05E
:107FA800000E016E000E026E000E036E000E046ECF
:107FB800100E015C270E0258000E0358000E0458DC
:107FC800D8A001D001D002D016D015D0010E0126BC
:107FD800000E0222000E0322000E0422100E015C85
:107FE800270E0258000E0358000E0458D8A001D0DE
:087FF80001D0ECD700D012000B
:00000001FF
