:040000000CEF00F011
:10000800FACF01F0FBCF02F0E9CF03F00EED00F0DC
:1000180059EF00F00600EACF04F0E1CF05F0E2CF97
:1000280006F0D9CF07F0DACF08F0F3CF09F0F4CF14
:100038000AF0F6CF0BF0F7CF0CF0F8CF0DF0F5CFB4
:100048000EF0F2A201D001D003D0817EF29200D04E
:100058000EC0F5FF0DC0F8FF0CC0F7FF0BC0F6FF90
:100068000AC0F4FF09C0F3FF08C0DAFF07C0D9FFD0
:1000780006C0E2FF05C0E1FF04C0EAFF03C0E9FFD4
:1000880002C0FBFF01C0FAFF1100939E818E9468A5
:100098008268000E956E9380F28EF28800D082CF2F
:1000A80083FFFDD7FCD70CEF00F0000149EF00F00B
:00000001FF
