:040000009DEF3FF041
:107F3A000001B2EF3FF0000E046E000E036E03D094
:107F4A00034A042A00D00150035C02500458D8A006
:107F5A0001D001D0F5D700D012009380000E956EA3
:107F6A0000D081A001D001D021D0990E836EC30E1A
:107F7A00026E500E016EA0EC3FF0CC0E836EC30E63
:107F8A00026E500E016EA0EC3FF0660E836EC30EB9
:107F9A00026E500E016EA0EC3FF0330E836EC30EDC
:107FAA00026E500E016EA0EC3FF0DBD7330E836EEB
:107FBA00C30E026E500E016EA0EC3FF0660E836E89
:107FCA00C30E026E500E016EA0EC3FF0CC0E836E13
:107FDA00C30E026E500E016EA0EC3FF0990E836E36
:107FEA00C30E026E500E016EA0EC3FF0BAD7B9D79D
:067FFA00B8D700EF00F013
:00000001FF
