:04000000B3EF1DF04D
:103B66000001DBEF1EF0FFFF07C083FF819281900B
:103B76008184000E026E010E016EF8EC1DF0819438
:103B86001200FFFFFFFF07C083FF819281848180BF
:103B9600000E026E010E016EF8EC1DF0819412000B
:103BA600FFFFFFFFC3CF03F0046AC4CF05F0066A28
:103BB6000434043203320434043203323F0E031653
:103BC600000E0416060ED89005360636E82EFBD7EC
:103BD600C00E0516000E061605500310016E06509F
:103BE6000410026E00D01200FFFFFFFF000E046EED
:103BF600000E036E1CD0000E066E000E056E870EBC
:103C0600055C000E0658D8A001D001D002D00CD019
:103C16000BD0054A062A870E055C000E0658D8A06A
:103C260001D001D0F6D700D0034A042A00D00150B3
:103C3600035C02500458D8A001D001D0DCD700D0D4
:103C46001200FFFFFFFF056E000E076E055002AE65
:103C560001D001D009D0016C021ED8B0022A056E2F
:103C6600010E076E055000D004AE01D001D005D07C
:103C7600036C041ED8B0042A00D004500310D8B434
:103C860001D001D024D0056E010E066E055005D078
:103C9600D89003360436062A00D004AE01D001D0EF
:103CA600F7D701D000D00350015C04500258D8A0C9
:103CB60001D001D005D00350015E0450025A00D055
:103CC600D89004320332062EEED701D000D007502A
:103CD600D8B401D001D005D0016C021ED8B0022A9A
:103CE60000D001C001F002C002F000D01200FFFFB8
:103CF600FFFF056E000E076E055004AE01D001D021
:103D060009D0036C041ED8B0042A056E010E076E96
:103D1600055000D002AE01D001D007D0016C021EC2
:103D2600D8B0022A010E071A00D0000E096E000E46
:103D3600086E04500310D8B401D001D028D0056E07
:103D4600010E066E055005D0D89003360436062AB5
:103D560000D004AE01D001D0F7D701D000D0D89062
:103D6600083609360350015C04500258D8A001D029
:103D760001D006D00350015E0450025A088000D0DC
:103D8600D89004320332062EEAD701D000D007506D
:103D9600D8B401D001D005D0086C091ED8B0092AC4
:103DA60000D008C001F009C002F000D01200FFFFE9
:103DB600FFFF000E936E93CF95FF928092848194BD
:103DC600000E026EFA0E016EF8EC1DF00A6E380E49
:103DD600076E0A50B6EC1DF0000E026EFA0E016E6A
:103DE600F8EC1DF00A6E0E0E076E0A50B6EC1DF0CA
:103DF600000E026E0F0E016EF8EC1DF00A6E010E3B
:103E0600076E0A50B6EC1DF0000E026E0F0E016E24
:103E1600F8EC1DF00A6E060E076E0A50B6EC1DF0A1
:103E2600000E026E0F0E016EF8EC1DF00A6E830E88
:103E3600076E0A50B6EC1DF0000E026E0F0E016EF4
:103E4600F8EC1DF0810EC26EC50EC16E0A6E540EE0
:103E5600076E0A50C5EC1DF0000E026E0F0E016EC5
:103E6600F8EC1DF00A6E450E076E0A50C5EC1DF003
:103E7600000E026E0F0E016EF8EC1DF00A6E4D0E6E
:103E8600076E0A50C5EC1DF0000E026E0F0E016E95
:103E9600F8EC1DF00A6E500E076E0A50C5EC1DF0C8
:103EA600000E026E0F0E016EF8EC1DF00A6E3A0E51
:103EB600076E0A50C5EC1DF0000E026E0F0E016E65
:103EC600F8EC1DF000D0000E026E010E016EF8EC4B
:103ED6001DF0C28400D0C2B401D001D0FCD700D0FE
:103EE600D4EC1DF001C011F002C012F011C001F0B7
:103EF60012C002F0000E046E0A0E036E25EC1EF0D0
:103F060001C00BF002C00CF011C001F012C002F0AB
:103F1600000E046E0A0E036E7BEC1EF001C011F05B
:103F260002C012F011C001F012C002F0000E046EC1
:103F36000A0E036E25EC1EF001C00DF002C00EF055
:103F460011C001F012C002F0000E046E0A0E036EDC
:103F56007BEC1EF001C00FF002C010F00F50300FC6
:103F6600076EC5EC1DF0000E026E0F0E016EF8EC2A
:103F76001DF00D50300F076EC5EC1DF0000E026EE1
:103F86000F0E016EF8EC1DF00B50300F076EC5ECEE
:103F96001DF0000E026E0F0E016EF8EC1DF00A6E9B
:103FA600DF0E076E0A50C5EC1DF0000E026E0F0EF6
:103FB600016EF8EC1DF00A6E460E076E0A50C5EC4F
:103FC6001DF0000E026E0F0E016EF8EC1DF0030ED2
:103FD600026EE80E016EF8EC1DF00A6E010E076E19
:103FE6000A50B6EC1DF0000E026E0F0E016EF8ECD4
:0A3FF6001DF069D768D700EF00F056
:00000001FF
