:040000002DEF3FF0B1
:107E000041554D52554448204C414C204B554D4115
:107E1000522003D00104016E00D0016601D001D0D0
:107E2000F9D700D0120002C082FF81808192818444
:107E3000036E010E016E035009EC3FF081941200B5
:107E400002C082FF819081928184036E010E016ED7
:107E5000035009EC3FF081941200000EF66E7E0E86
:107E6000F76E000EF86E00EE19F010EE12F0090039
:107E7000F5CFEEFFE550E150FAE100017DEF3FF074
:107E80009468819081828184026E010E016E02509D
:107E900009EC3FF0819482BE01D001D0F4D700D02C
:107EA000000E946E1200016E000E036E0150270E3C
:107EB000036401D001D002D01FD01ED0016E000E8D
:107EC000046E0150860E046401D001D002D00DD0A2
:107ED0000CD0016E000E026E0150022A042A860E9A
:107EE000046401D001D0F5D700D0032A270E036423
:107EF00001D001D0E3D700D0120020EE19F010EE2F
:107F000006F0120EDECFE6FFE82EFCD78194000EBD
:107F1000946E000E936E056EF40E016E055009EC22
:107F20003FF0056E380E026E055020EC3FF0056EF6
:107F3000F40E016E055009EC3FF0056E0E0E026E58
:107F4000055020EC3FF040EC3FF0056E010E026E54
:107F5000055020EC3FF040EC3FF0056E060E026E3F
:107F6000055020EC3FF040EC3FF040EC3FF0056E58
:107F7000860E026E055020EC3FF040EC3FF0056E9F
:107F80001C0E026E055020EC3FF040EC3FF040EC40
:107F90003FF0056EFA0E016E055009EC3FF000D07F
:107FA000056E000E186E0550110E186401D001D038
:107FB00002D0F6D7F5D71850010D060EF324D96E6E
:107FC000DA6A000EDA22DF50026E13EC3FF040EC6A
:107FD0003FF040EC3FF053EC3FF0056E1C0E026E9C
:107FE000055020EC3FF040EC3FF0182A110E1864C9
:107FF00001D001D0E0D7D4D7D3D7D2D700EF00F04B
:00000001FF
