:040000000CEF00F011
:10000800FACF01F0FBCF02F0E9CF03F00EED00F0DC
:1000180068EF00F00600EACF04F0E1CF05F0E2CF88
:1000280006F0D9CF07F0DACF08F0F3CF09F0F4CF14
:100038000AF0F6CF0BF0F7CF0CF0F8CF0DF0F5CFB4
:100048000EF09EA001D001D007D0811E6D0ECE6E9D
:10005800840ECF6E9E9000D00EC0F5FF0DC0F8FF45
:100068000CC0F7FF0BC0F6FF0AC0F4FF09C0F3FF8E
:1000780008C0DAFF07C0D9FF06C0E2FF05C0E1FFEC
:1000880004C0EAFF03C0E9FF02C0FBFF01C0FAFF9A
:100098001100000E936E949895888388000ECD6E9B
:1000A8006D0ECE6E840ECF6ECD80F28EF28C9D805A
:1000B800816800D083B801D002D0828801D08298AC
:0E00C800F9D7F8D70CEF00F000014DEF00F073
:00000001FF
