:04000000BAEF1FF044
:103F74000001D1EF1FF0FFFF000E046E000E036E70
:103F840003D0034A042A00D00150035C02500458B1
:103F9400D8A001D001D0F5D700D01200FFFFFFFF59
:103FA4009380000E956E00D081A001D001D00FD077
:103FB4008380000E026EC80E016EBDEC1FF083926A
:103FC400000E026EC80E016EBDEC1FF000D081B071
:103FD40001D001D0E9D78390000E026EC80E016EA5
:103FE400BDEC1FF08382000E026EC80E016EBDECA4
:0C3FF4001FF0DAD7D9D7D8D700EF00F0C3
:00000001FF
