:040000000CEF00F011
:10000800FACF02F0FBCF03F0E9CF04F00EED00F0D9
:100018006CEF00F00600EACF05F0E1CF06F0E2CF82
:1000280007F0D9CF08F0DACF09F0F3CF0AF0F4CF10
:100038000BF0F6CF0CF0F7CF0DF0F8CF0EF0F5CFB0
:100048000FF09EA801D001D026D020EE1CF010EEB3
:1000580010F00B0EDECFE6FFE82EFCD7016E000E87
:100068001B6E01501B50010D100EF324D96EDA6A75
:10007800000EDA22DF50AD6E9E981B500C0AD8A4F1
:1000880001D001D005D0016E000E1B6E015003D0C7
:100098001B2A01D000D00FC0F5FF0EC0F8FF0DC01D
:1000A800F7FF0CC0F6FF0BC0F4FF0AC0F3FF09C04E
:1000B800DAFF08C0D9FF07C0E2FF06C0E1FF05C0AC
:1000C800EAFF04C0E9FF03C0FBFF02C0FAFF11000A
:1000D800240EF66E010EF76E000EF86E00EE1CF0A0
:1000E80010EE0BF00900F5CFEEFFE550E150FAE114
:1000F80000017FEF00F09368000E956EF28EF28C8F
:100108009D88200EAC6E949C0F0EAF6EAB8E00D007
:1001180081CF83FFFDD7FCD70CEF00F0474F4F444A
:080128004D4F524E494E4700B5
:00000001FF
