:04000000BCEF3FF022
:107F78000001DEEF3FF0000E056E000E066E000EEB
:107F8800076E000E086E08D0010E0526000E0622A8
:107F9800000E0722000E08220150055C0250065808
:107FA8000350075804500858D8A001D001D0ECD786
:107FB80000D01200000E936E096E010E0A6E095071
:107FC8000A28D8A401D001D002D014D013D00AC0F6
:107FD80081FF980E016E3A0E026E000E036E000EBF
:107FE800046EBFEC3FF00A2A0A28D8A401D001D0B9
:087FF800EED700D000EF00F00D
:00000001FF
