:04000000BCEF3FF022
:107F78000001DEEF3FF0000E056E000E066E000EEB
:107F8800076E000E086E08D0010E0526000E0622A8
:107F9800000E0722000E08220150055C0250065808
:107FA8000350075804500858D8A001D001D0ECD786
:107FB80000D01200000E946E096E000E0A6E095071
:107FC800090E0A6401D001D002D014D013D00AC01F
:107FD80082FF880E016E130E026E000E036E000EF5
:107FE800046EBFEC3FF00A2A090E0A6401D001D0E2
:087FF800EED700D000EF00F00D
:00000001FF
